S0130000416D697450726F6A6563742E73726563AF
S11300000C942A000C943F000C943F000C943F0085
S11300100C943F000C943F000C943F000C943F0060
S11300200C943F000C943F000C943F000C943F0050
S11300300C9445020C943F000C943F000C943F0038
S11300400C943F000C943F000C943F000C943F0030
S11300500C943F0011241FBECFE5D8E0DEBFCDBF16
S113006010E0A0E6B0E0ECE5F6E002C005900D92E9
S1130070A43BB107D9F70E943A020C942C030C94C8
S11300800000442319F04130C9F10895813091F002
S113009028F08230D9F0833029F108952AB381E021
S11300A090E002C0880F991F6A95E2F78095822339
S11300B08ABB089527B381E090E002C0880F991F9E
S11300C06A95E2F78095822387BB089524B381E083
S11300D090E002C0880F991F6A95E2F78095822309
S11300E084BB089521B381E090E002C0880F991F7A
S11300F06A95E2F78095822381BB0895813089F067
S113010028F08230C9F0833011F108952AB381E0D8
S113011090E002C0880F991F6A95E2F7822B8ABB90
S1130120089527B381E090E002C0880F991F6A9573
S1130130E2F7822B87BB089524B381E090E002C0EC
S1130140880F991F6A95E2F7822B84BB089521B327
S113015081E090E002C0880F991F6A95E2F7822B34
S113016081BB0895442319F04130C9F108958130C9
S113017091F028F08230D9F0833029F108952BB31F
S113018081E090E002C0880F991F6A95E2F780959C
S113019082238BBB089528B381E090E002C0880FCE
S11301A0991F6A95E2F78095822388BB089525B349
S11301B081E090E002C0880F991F6A95E2F780956C
S11301C0822385BB089522B381E090E002C0880FAA
S11301D0991F6A95E2F78095822382BB0895813046
S11301E089F028F08230C9F0833011F108952BB3DF
S11301F081E090E002C0880F991F6A95E2F7822B94
S11302008BBB089528B381E090E002C0880F991F4A
S11302106A95E2F7822B88BB089525B381E090E0CC
S113022002C0880F991F6A95E2F7822B85BB089557
S113023022B381E090E002C0880F991F6A95E2F72B
S1130240822B82BB0895CF93C82F40E061E081E008
S11302500E94B20040E062E081E00E94B20040E00F
S113026063E081E00E94B2008BB39C2F907F8F707B
S1130270892B8BBB41E063E081E00E94B2008FE9EF
S11302809FE00197F1F700C0000040E063E081E0E7
S11302900E94B20020E1C29FC00111249BB39F7051
S11302A0892B8BBB41E063E081E00E94B2008FE9BF
S11302B09FE00197F1F700C0000040E063E081E0B7
S11302C00E94B2008FE39FE10197F1F700C00000A4
S11302D0CF91089541E061E081E00E94410041E056
S11302E062E081E00E94410041E063E081E00E941D
S11302F0410041E064E080E00E94410041E065E0AB
S113030080E00E94410041E066E080E00E944100FC
S113031041E067E080E00E9441002FEF81EE94E02D
S1130320215080409040E1F700C0000082E00E942C
S1130330230183E30E94230182E30E94230188E2D4
S11303400E9423018CE00E94230181E00E9423018A
S113035086E00E9423010895CF93C82F41E061E015
S113036081E00E94B20040E062E081E00E94B200BD
S113037040E063E081E00E94B2008BB39C2F907F49
S11303808F70892B8BBB41E063E081E00E94B20057
S11303908FE99FE00197F1F700C0000040E063E0BF
S11303A081E00E94B20020E1C29FC00111249BB3EE
S11303B09F70892B8BBB41E063E081E00E94B20017
S11303C08FE99FE00197F1F700C0000040E063E08F
S11303D081E00E94B2008FE39FE10197F1F700C032
S11303E00000CF910895CF93DF93EC0103C00E94E6
S11303F0AC01219688818111FACFDF91CF910895C4
S113040081E00E942301089541E062E082E00E94BD
S11304104100089541E062E082E00E94B200089544
S113042040E062E082E00E94B200089541E067E0AB
S113043082E00E944100089541E067E082E00E946A
S1130440B200089540E067E082E00E94B20008959F
S113045041E063E083E00E944100089541E063E0ED
S113046083E00E94B200089540E063E083E00E94CC
S1130470B20008950E9404020E9416020E942802FB
S11304800E941A030E946A01FFCF1F920F920FB6B7
S11304900F9211242F933F934F935F936F937F9306
S11304A08F939F93AF93BF93EF93FF938FB1833653
S11304B091F128F4813659F08236D9F074C085362A
S11304C009F44DC0D0F1863609F45BC06CC00E94BB
S11304D0000280E690E00E94F3012FEF82E597E0AE
S11304E0215080409040E1F700C000000E940A02C1
S11304F090C00E9400028BE690E00E94F3012FEF6F
S113050082E597E0215080409040E1F700C0000070
S11305100E9410027EC00E94000287E790E00E94C1
S1130520F3012FEF82E597E0215080409040E1F7FE
S113053000C000000E941C026CC00E94000282E8FD
S113054090E00E94F3012FEF82E597E02150804074
S11305509040E1F700C000000E9422025AC00E94AD
S113056000028EE890E00E94F3012FEF82E597E00D
S1130570215080409040E1F700C000000E942E020C
S113058048C00E94000289E990E00E94F3012FEF25
S113059082E597E0215080409040E1F700C00000E0
S11305A00E94340236C00E94000285EA90E00E9454
S11305B0F3012FEF82E597E0215080409040E1F76E
S11305C000C000000E940A022FEF82E597E021504C
S11305D080409040E1F700C000000E9410020E9499
S11305E01C022FEF82E597E0215080409040E1F714
S11305F000C000000E9422020E942E022FEF82E51A
S113060097E0215080409040E1F700C000000E9434
S11306103402FF91EF91BF91AF919F918F917F91A0
S11306206F915F914F913F912F910F900FBE0F905B
S11306301F90189587B38F7D87BB87B3806487BB72
S113064087B38F7787BB87B38F7E87BB83EC8DB9E6
S10F06508FB780688FBF0895F894FFCF27
S113065C4C45442031204F50454E004C45442031EC
S113066C20434C4F5345004C45442032204F5045B9
S113067C4E004C4544203220434C4F5345004C45CE
S113068C442033204F50454E004C454420332043E6
S113069C4C4F53450057726F6E6720496E707574DA
S10706AC20212100E4
S9030000FC
